:020000040800F2
:1000000000C0002085220008812000088D20000803
:1000100093200008992000089F200008000000009D
:10002000000000000000000000000000A520000803
:10003000B120000800000000BD200008C920000811
:10004000CD220008CD220008CD220008CD220008D4
:10005000CD220008CD220008D5200008CD220008BE
:10006000CD220008CD220008CD220008CD220008B4
:10007000CD220008CD220008CD220008CD220008A4
:10008000CD220008CD220008CD220008CD22000894
:10009000CD220008CD220008CD220008E320000870
:1000A000CD220008CD220008CD220008CD22000874
:1000B000CD220008CD220008CD220008CD22000864
:1000C000CD220008CD220008CD220008CD22000854
:1000D000CD220008F1200008CD220008CD22000822
:1000E00011210008CD220008CD220008CD220008F1
:1000F000CD220008CD220008CD220008CD22000824
:10010000CD220008CD220008CD220008CD22000813
:10011000CD220008CD220008CD220008CD22000803
:10012000CD220008CD220008CD220008CD220008F3
:1001300000000000000000000000000000000000BF
:1001400000000000000000000000000000000000AF
:10015000000000000000000000000000000000009F
:10016000000000000000000000000000000000008F
:10017000000000000000000000000000000000007F
:10018000000000000000000000000000000000006F
:10019000000000000000000000000000000000005F
:1001A000000000000000000000000000000000004F
:1001B000000000000000000000000000000000003F
:1001C000000000000000000000000000000000002F
:1001D000000000000000000000000000000000001F
:0401E0005FF8E0F1F3
:1001E40010B5054C237833B9044B13B10448AFF36D
:1001F40000800123237010BD4C000020000000008B
:100204002823000808B5034B1BB103490348AFF387
:10021400008008BD000000005000002028230008D2
:1002240010F8012B11F8013B012A28BF9A42F7D09C
:10023400D01A704780B500AF084B1B68074A43F0DB
:1002440010031360032000F045F9002000F008F8C3
:1002540001F0E0FE0023184680BD00BF00200240EC
:1002640080B582B000AF7860124B1A68124B1B78CD
:1002740019464FF47A73B3FBF1F3B2FBF3F3184668
:1002840000F05DF90346002B01D001230EE07B68EA
:100294000F2B0AD8002279684FF0FF3000F025F9BF
:1002A400064A7B681360002300E0012318460837E0
:1002B400BD4680BD4800002004000020000000204E
:1002C40080B400AF054B1B781A46054B1B681344DA
:1002D400034A136000BFBD4680BC70470400002081
:1002E4006C04002080B400AF024B1B681846BD4666
:1002F40080BC70476C04002080B584B000AF786087
:10030400FFF7F0FFB8607B68FB60FB68B3F1FF3F69
:1003140005D0094B1B781A46FB681344FB6000BFE9
:10032400FFF7E0FF0246BB68D31AFA689A42F7D88F
:1003340000BF1037BD4680BD0400002080B485B0E6
:1003440000AF78607B6803F00703FB600C4BDB684D
:10035400BB60BA684FF6FF031340BB60FB681A0228
:10036400BB68134343F0BF6343F40033BB60044AE8
:10037400BB68D36000BF1437BD4680BC704700BF64
:1003840000ED00E080B400AF044BDB681B0A03F00F
:1003940007031846BD4680BC704700BF00ED00E06F
:1003A40080B483B000AF0346FB7197F90730002B8C
:1003B4000BDBFB7903F01F02064997F907305B0951
:1003C400012000FA02F241F8232000BF0C37BD4699
:1003D40080BC704700E100E080B483B000AF034606
:1003E4003960FB7197F90730002B0ADB3B68DAB2FE
:1003F4000C4997F907301201D2B20B4483F8002359
:100404000AE03B68DAB20849FB7903F00F03043BC6
:100414001201D2B20B441A7600BF0C37BD4680BC21
:10042400704700BF00E100E000ED00E080B489B057
:1004340000AFF860B9607A60FB6803F00703FB6102
:10044400FB69C3F10703042B28BF0423BB61FB69C9
:100454000433062B02D9FB69033B00E000237B61D4
:100464004FF0FF32BB6902FA03F3DA43BB681A4068
:100474007B699A404FF0FF317B6901FA03F3D9435A
:100484007B680B40134318462437BD4680BC704735
:1004940080B582B000AF78607B68013BB3F1807FA8
:1004A40001D301230FE00A4A7B68013B53600F210B
:1004B4004FF0FF30FFF790FF054B00229A60044B8A
:1004C40007221A60002318460837BD4680BD00BFC6
:1004D40010E000E080B582B000AF78607868FFF784
:1004E4002DFF00BF0837BD4680BD80B586B000AF84
:1004F4000346B9607A60FB7300237B61FFF742FF18
:1005040078617A68B9687869FFF790FF024697F9CD
:100514000F3011461846FFF75FFF00BF1837BD467E
:1005240080BD80B582B000AF0346FB7197F90730F8
:100534001846FFF735FF00BF0837BD4680BD80B5BC
:1005440082B000AF78607868FFF7A2FF03461846D0
:100554000837BD4680BD000080B584B000AF786028
:100564000023FB737B6893F82130022B05D07B6852
:1005740004229A630123FB73D6E07B681B681A6824
:100584007B681B6822F00E021A607B681B681A687D
:100594007B681B6822F001021A607B681B681A469C
:1005A400644B9A4258D97B681B68634A93424FD084
:1005B4007B681B68614A934248D07B681B68604A29
:1005C400934240D07B681B685E4A934238D07B6874
:1005D4001B685D4A934230D07B681B685B4A934238
:1005E40028D07B681B68534A934220D07B681B68E1
:1005F400574A934219D07B681B68564A934212D0DB
:100604007B681B68544A93420AD07B681B68534A30
:10061400934202D14FF480531BE04FF4803318E02F
:100624004FF4807315E0102313E0012311E04FF021
:1006340080730EE04FF480130BE04FF4803308E036
:100644004FF4805305E04FF4807302E0102300E080
:100654000123434A536057E07B681B68364A934240
:100664004FD07B681B68354A934248D07B681B682F
:10067400334A934240D07B681B68324A934238D055
:100684007B681B68304A934230D07B681B682F4AD2
:10069400934228D07B681B68264A934220D07B680B
:1006A4001B682B4A934219D07B681B68294A9342E2
:1006B40012D07B681B68284A93420AD07B681B6867
:1006C400264A934202D14FF480531BE04FF4803307
:1006D40018E04FF4807315E0102313E0012311E0B8
:1006E4004FF080730EE04FF480130BE04FF480332F
:1006F40008E04FF4805305E04FF4807302E01023C8
:1007040000E00123174A53607B68012283F821200B
:100714007B68002283F820207B685B6B002B03D06E
:100724007B685B6B78689847FB7B18461037BD463F
:1007340080BD00BF80000240080002401C0002404F
:100744003000024044000240580002406C00024065
:10075400080402401C0402403004024044040240E5
:10076400000402400000024080B48BB000AF786007
:10077400396000237B6200233B6233E101227B6A00
:1007840002FA03F3FB613B681B68FA691340BB611F
:10079400BA69FB699A4240F022813B685B68122B7C
:1007A40034D0122B0DD8022B2BD0022B04D8002BC3
:1007B40031D0012B1CD048E0032B43D0112B1BD08C
:1007C40043E08F4A934226D08D4A934206D88D4AFD
:1007D400934220D08C4A93421DD036E08B4A9342F8
:1007E40019D08B4A934216D08A4A934213D02CE0F4
:1007F4003B68DB683B6228E03B68DB6804333B62B0
:1008040023E03B68DB6808333B621EE03B68DB683F
:100814000C333B6219E03B689B68002B02D1042334
:100824003B6212E03B689B68012B05D108233B62C5
:100834007B68FA691A6108E008233B627B68FA69FD
:100844005A6102E000233B6200BFBB69FF2B01D861
:100854007B6801E07B6804337B61BB69FF2B02D8B2
:100864007B6A9B0002E07B6A083B9B003B617B69DF
:100874001A680F213B6901FA03F3DB431A40396A12
:100884003B6901FA03F31A437B691A603B685B68AE
:1008940003F08053002B00F0A2805F4B9B695E4AFB
:1008A40043F0010393615C4B9B6903F00103BB605C
:1008B400BB685A4A7B6A9B08023352F82330FB60B8
:1008C4007B6A03F003039B000F2202FA03F3DB436A
:1008D400FA681340FB607B68514A93421FD07B68DF
:1008E400504A934219D07B684F4A934213D07B6895
:1008F4004E4A93420DD07B684D4A934207D07B68A1
:100904004C4A934201D105230AE0062308E004235C
:1009140006E0032304E0022302E0012300E00023B5
:100924007A6A02F0030292009340FA681343FB6070
:100934003A497B6A9B080233FA6841F823203B68F2
:100944005B6803F48033002B06D03B4B1A683A49AA
:10095400BB6913430B6006E0374B1A68BB69DB4382
:10096400354913400B603B685B6803F40033002B8C
:1009740006D0314B5A683049BB6913434B6006E0DB
:100984002D4B5A68BB69DB432B4913404B603B68D2
:100994005B6803F48013002B06D0274B9A68264922
:1009A400BB6913438B6006E0234B9A68BB69DB4346
:1009B400214913408B603B685B6803F40013002BF0
:1009C40006D01D4BDA681C49BB691343CB6006E0B3
:1009D400194BDA68BB69DB4317491340CB607B6A68
:1009E40001337B623B681A687B6A22FA03F3002BAB
:1009F4007FF4C4AE00BF2C37BD4680BC704700BF37
:100A0400000021100000111000001210000031102D
:100A140000003210000022100010024000000140CB
:100A240000080140000C0140001001400014014086
:100A340000180140001C01400004014080B485B04E
:100A440000AF78600B467B807B689A687B88134094
:100A5400002B02D00123FB7301E00023FB73FB7B1B
:100A640018461437BD4680BC704780B483B000AFCD
:100A740078600B467B8013467B707B78002B03D019
:100A84007A887B681A6103E07B881A047B681A61A0
:100A940000BF0C37BD4680BC704780B483B000AF44
:100AA40078600B467B807B68DA687B881340002B78
:100AB40003D07A887B685A6102E07A887B681A617D
:100AC40000BF0C37BD4680BC7047000080B582B0C3
:100AD40000AF0346FB80084B5A69FB881340002B88
:100AE40006D0054AFB885361FB88184601F0A2F939
:100AF40000BF0837BD4680BD0004014080B586B004
:100B040000AF78607B68002B01D101236CE27B6825
:100B14001B6803F00103002B00F08780924B5B6895
:100B240003F00C03042B0CD08F4B5B6803F00C0315
:100B3400082B12D18C4B5B6803F48033B3F5803FF0
:100B44000BD1894B1B6803F40033002B6CD07B68FA
:100B54005B68002B68D1012346E27B685B68B3F5D0
:100B6400803F06D1804B1B687F4A43F48033136077
:100B74002EE07B685B68002B0CD17B4B1B687A4AA8
:100B840023F480331360784B1B68774A23F4802363
:100B940013601DE07B685B68B3F5A02F0CD1724B2A
:100BA4001B68714A43F4802313606F4B1B686E4AC1
:100BB40043F4803313600BE06B4B1B686A4A23F4E5
:100BC40080331360684B1B68674A23F480231360E7
:100BD4007B685B68002B13D0FFF784FB386108E067
:100BE400FFF780FB02463B69D31A642B01D9032328
:100BF400FAE15D4B1B6803F40033002BF0D014E0E2
:100C0400FFF770FB386108E0FFF76CFB02463B69B5
:100C1400D31A642B01D90323E6E1534B1B6803F475
:100C24000033002BF0D100E000BF7B681B6803F0A9
:100C34000203002B63D04C4B5B6803F00C03002BC6
:100C44000BD0494B5B6803F00C03082B1CD1464BBB
:100C54005B6803F48033002B16D1434B1B6803F00D
:100C64000203002B05D07B681B69012B01D00123F3
:100C7400BAE13D4B1B6823F0F8027B685B69DB003B
:100C8400394913430B603AE07B681B69002B20D081
:100C9400364B01221A60FFF725FB386108E0FFF7A5
:100CA40021FB02463B69D31A022B01D903239BE1A2
:100CB4002D4B1B6803F00203002BF0D02A4B1B685A
:100CC40023F0F8027B685B69DB00274913430B6060
:100CD40015E0264B00221A60FFF704FB386108E098
:100CE400FFF700FB02463B69D31A022B01D9032309
:100CF4007AE11D4B1B6803F00203002BF0D17B68E3
:100D04001B6803F00803002B3AD07B689B69002B17
:100D140019D0174B01221A60FFF7E4FA386108E092
:100D2400FFF7E0FA02463B69D31A022B01D90323E9
:100D34005AE10D4B5B6A03F00203002BF0D0012053
:100D440000F0DAFA1CE00A4B00221A60FFF7CAFA34
:100D540038610FE0FFF7C6FA02463B69D31A022B4B
:100D640008D9032340E100BF0010024000004242C2
:100D7400800442429E4B5B6A03F00203002BE9D1DC
:100D84007B681B6803F00403002B00F0A68000239B
:100D9400FB75974BDB6903F08053002B0DD1944B0B
:100DA400DB69934A43F08053D361914BDB6903F0D1
:100DB4008053BB60BB680123FB758E4B1B6803F437
:100DC4008073002B18D18B4B1B688A4A43F48073C1
:100DD4001360FFF787FA386108E0FFF783FA0246E9
:100DE4003B69D31A642B01D90323FDE0814B1B68B3
:100DF40003F48073002BF0D07B68DB68012B06D1F1
:100E04007B4B1B6A7A4A43F0010313622DE07B6833
:100E1400DB68002B0CD1764B1B6A754A23F0010367
:100E24001362734B1B6A724A23F0040313621CE0BF
:100E34007B68DB68052B0CD16D4B1B6A6C4A43F055
:100E4400040313626A4B1B6A694A43F00103136289
:100E54000BE0674B1B6A664A23F001031362644B81
:100E64001B6A634A23F0040313627B68DB68002B6C
:100E740015D0FFF737FA38610AE0FFF733FA024674
:100E84003B69D31A41F28832934201D90323ABE080
:100E9400574B1B6A03F00203002BEED014E0FFF75C
:100EA40021FA38610AE0FFF71DFA02463B69D31ABA
:100EB40041F28832934201D9032395E04C4B1B6ADB
:100EC40003F00203002BEED1FB7D012B05D1484B2F
:100ED400DB69474A23F08053D3617B68DB69002BCD
:100EE40000F08180424B5B6803F00C03082B61D057
:100EF4007B68DB69022B46D13F4B00221A60FFF767
:100F0400F1F9386108E0FFF7EDF902463B69D31ABD
:100F1400022B01D9032367E0354B1B6803F00073F0
:100F2400002BF0D17B681B6AB3F5803F08D1304BAE
:100F34005B6823F400327B689B682D4913434B6044
:100F44002B4B5B6823F474127B68196A7B685B6AB9
:100F54000B43274913434B60274B01221A60FFF7C9
:100F6400C1F9386108E0FFF7BDF902463B69D31ABD
:100F7400022B01D9032337E01D4B1B6803F00073D8
:100F8400002BF0D02FE01C4B00221A60FFF7AAF9C7
:100F9400386108E0FFF7A6F902463B69D31A022B31
:100FA40001D9032320E0124B1B6803F00073002BCC
:100FB400F0D118E07B68DB69012B01D1012313E038
:100FC4000B4B5B68FB60FB6803F480327B681B6A35
:100FD4009A4206D1FB6803F470127B685B6A9A42FA
:100FE40001D0012300E0002318461837BD4680BD18
:100FF40000100240007000406000424280B584B09E
:1010040000AF786039607B68002B01D10123D0E008
:101014006A4B1B6803F007033A689A4210D9674B7E
:101024001B6823F0070265493B6813430B60634B5D
:101034001B6803F007033A689A4201D00123B8E021
:101044007B681B6803F00203002B20D07B681B68BD
:1010540003F00403002B05D0594B5B68584A43F452
:10106400E06353607B681B6803F00803002B05D022
:10107400534B5B68524A43F460535360504B5B6874
:1010840023F0F0027B689B684D4913434B607B68F7
:101094001B6803F00103002B40D07B685B68012BC5
:1010A40007D1474B1B6803F40033002B15D10123F0
:1010B4007FE07B685B68022B07D1414B1B6803F020
:1010C4000073002B09D1012373E03D4B1B6803F02F
:1010D4000203002B01D101236BE0394B5B6823F041
:1010E40003027B685B68364913434B60FFF7FAF8E9
:1010F400F8600AE0FFF7F6F80246FB68D31A41F2FB
:101104008832934201D9032353E02D4B5B6803F0EB
:101114000C027B685B689B009A42EBD1274B1B68EF
:1011240003F007033A689A4210D2244B1B6823F059
:10113400070222493B6813430B60204B1B6803F0F2
:1011440007033A689A4201D0012332E07B681B68A6
:1011540003F00403002B08D0194B5B6823F4E0620E
:101164007B68DB68164913434B607B681B6803F09C
:101174000803002B09D0124B5B6823F460527B6890
:101184001B69DB000E4913434B6000F021F8014654
:101194000B4B5B681B0903F00F030A4AD35C21FA6B
:1011A40003F3094A1360094B1B681846FFF758F804
:1011B400002318461037BD4680BD00BF0020024002
:1011C40000100240542300084800002000000020C2
:1011D40090B48AB000AF2A4B3C1D0FCB84E80F00BB
:1011E400284B1B883B800023FB610023BB61002349
:1011F4007B6200237B6100233B62234B5B68FB61C2
:10120400FB6903F00C03042B02D0082B03D02DE060
:101214001E4B3B622DE0FB699B0C03F00F0307F1AF
:101224002802134413F8243C7B61FB6903F48033E4
:10123400002B13D0144B5B685B0C03F0010307F124
:101244002802134413F8283CBB617B690F4A02FB54
:1012540003F2BB69B2FBF3F37B6204E07B690C4AE3
:1012640002FB03F37B627B6A3B6202E0074B3B6257
:1012740000BF3B6A18462837BD4690BC704700BF84
:1012840040230008502300080010024000127A0096
:1012940000093D0080B400AF024B1B681846BD46F0
:1012A40080BC70474800002080B500AFFFF7F2FF14
:1012B4000146054B5B681B0A03F00703034AD35C32
:1012C40021FA03F3184680BD00100240642300088D
:1012D40080B500AFFFF7DEFF0146054B5B68DB0A14
:1012E40003F00703034AD35C21FA03F3184680BDD5
:1012F400001002406423000880B485B000AF786019
:101304000A4B1B680A4AA2FB03235B0A7A6802FBA6
:1013140003F3FB6000BFFB685A1EFA60002BF9D18F
:1013240000BF1437BD4680BC704700BF4800002092
:10133400D34D621080B582B000AF78607B68002B1B
:1013440001D101233FE07B6893F83930DBB2002BF5
:1013540006D17B68002283F83820786800F03CFFCF
:101364007B68242283F839207B681B68DA687B68F1
:101374001B6822F40052DA60786800F08DFB7B6809
:101384001B681A697B681B6822F490421A617B68A7
:101394001B685A697B681B6822F02A025A617B68C1
:1013A4001B68DA687B681B6842F40052DA607B6869
:1013B4000022DA637B68202283F839207B682022AC
:1013C40083F83A20002318460837BD4680BD80B50F
:1013D40088B002AFF860B9603B601346FB8000231D
:1013E4007B61FB6893F83930DBB2202B40F08380BB
:1013F400BB68002B02D0FB88002B01D101237BE0CA
:10140400FB6893F83830012B01D1022374E0FB68A8
:10141400012283F83820FB680022DA63FB6821226A
:1014240083F83920FEF75EFF7861FB68FA889A84B6
:10143400FB68FA88DA8442E0FB68DB8C9BB2013BF0
:101444009AB2FB68DA84FB689B68B3F5805F22D1AB
:101454003B6800937B6900228021F86800F0B2F9B0
:101464000346002B01D0032346E0BB683B613B6984
:101474001B881A46FB681B68C2F308025A60FB68A3
:101484001B69002B03D1BB680233BB6017E0BB6848
:101494000133BB6013E03B6800937B690022802129
:1014A400F86800F08FF90346002B01D0032323E0F2
:1014B400BB685A1CBA601A78FB681B685A60FB68E0
:1014C400DB8C9BB2002BB7D13B6800937B69002275
:1014D4004021F86800F076F90346002B01D003237D
:1014E4000AE0FB68202283F83920FB68002283F895
:1014F4003820002300E0022318461837BD4680BD7B
:1015040080B485B000AFF860B9601346FB80FB6817
:1015140093F83A30DBB2202B40D1BB68002B02D0C9
:10152400FB88002B01D1012339E0FB6893F83830A4
:10153400012B01D1022332E0FB68012283F8382019
:10154400FB68BA689A62FB68FA889A85FB68FA882D
:10155400DA85FB680022DA63FB68222283F83A20EA
:10156400FB68002283F83820FB681B68DA68FB6894
:101574001B6842F48072DA60FB681B685A69FB6876
:101584001B6842F001025A61FB681B68DA68FB6859
:101594001B6842F02002DA60002300E002231846B0
:1015A4001437BD4680BC704780B588B000AF786002
:1015B4007B681B681B68FB617B681B68DB68BB611D
:1015C4007B681B685B697B6100233B610023FB60D4
:1015D400FB6903F00F033B613B69002B0DD1FB69F1
:1015E40003F02003002B08D0BB6903F02003002B79
:1015F40003D0786800F0CEF9CCE03B69002B00F012
:10160400AB807B6903F00103002B05D1BB6903F4B4
:101614009073002B00F0A080FB6903F00103002B02
:101624000AD0BB6903F48073002B05D07B68DB6BA5
:1016340043F001027B68DA63FB6903F00403002BC7
:101644000AD07B6903F00103002B05D07B68DB6BB8
:1016540043F002027B68DA63FB6903F00203002BA8
:101664000AD07B6903F00103002B05D07B68DB6B98
:1016740043F004027B68DA63FB6903F00803002B80
:101684000AD07B6903F00103002B05D07B68DB6B78
:1016940043F008027B68DA637B68DB6B002B78D04D
:1016A400FB6903F02003002B07D0BB6903F0200380
:1016B400002B02D0786800F06DF97B681B685B69C9
:1016C40003F04003002B14BF01230023DBB2FB60B3
:1016D4007B68DB6B03F00803002B02D1FB68002B53
:1016E40031D0786800F0B8F87B681B685B6903F058
:1016F4004003002B23D07B681B685A697B681B68F6
:1017040022F040025A617B685B6B002B13D07B682C
:101714005B6B224A5A637B685B6B1846FEF71CFFBF
:101724000346002B16D07B685B6B5B6B7A68526B4D
:10173400104698470EE0786800F03BF80AE07868B5
:1017440000F037F806E0786800F033F87B68002290
:10175400DA631EE000BF1CE0FB6903F08003002B8A
:1017640008D0BB6903F08003002B03D0786800F035
:10177400A4F80FE0FB6903F04003002B0AD0BB6917
:1017840003F04003002B05D0786800F0EBF800BFAD
:1017940000E000BF2037BD4680BD00BF9718000899
:1017A40080B483B000AF786000BF0C37BD4680BC06
:1017B400704780B483B000AF786000BF0C37BD467B
:1017C40080BC704780B584B000AFF860B9603B60FE
:1017D4001346FB712CE0BB69B3F1FF3F28D0BB6912
:1017E400002B07D0FEF77EFD02463B68D31ABA6988
:1017F4009A421DD2FB681B68DA68FB681B6822F4F6
:10180400D072DA60FB681B685A69FB681B6822F0B7
:1018140001025A61FB68202283F83920FB682022E8
:1018240083F83A20FB68002283F8382003230FE072
:10183400FB681B681A68BB681340BA689A420CBFFD
:1018440001230023DBB21A46FB799A42C3D000235A
:1018540018461037BD4680BD80B483B000AF7860B1
:101864007B681B68DA687B681B6822F49072DA6014
:101874007B681B685A697B681B6822F001025A6105
:101884007B68202283F83A2000BF0C37BD4680BC19
:10189400704780B584B000AF78607B685B6AFB609A
:1018A400FB680022DA85FB680022DA84F868FFF717
:1018B40080FF00BF1037BD4680BD80B485B000AF47
:1018C40078607B6893F83930DBB2212B44D17B6894
:1018D4009B68B3F5805F1AD17B681B6AFB60FB6869
:1018E4001B881A467B681B68C2F308025A607B682F
:1018F4001B69002B05D17B681B6A9A1C7B681A62E2
:101904000EE07B681B6A5A1C7B681A6208E07B68DD
:101914001B6A591C7A6811621A787B681B685A60C2
:101924007B68DB8C9BB2013B9BB27A681946D184FD
:10193400002B0FD17B681B68DA687B681B6822F078
:101944008002DA607B681B68DA687B681B6842F097
:101954004002DA60002300E0022318461437BD4633
:1019640080BC704780B582B000AF78607B681B682C
:10197400DA687B681B6822F04002DA607B68202208
:1019840083F839207868FFF70BFF002318460837DF
:10199400BD4680BD80B584B000AF78607B6893F8A5
:1019A4003A30DBB2222B71D17B689B68B3F5805F40
:1019B40023D17B689B6AFB607B681B69002B0ED17B
:1019C4007B681B685B689BB2C3F308039AB2FB682D
:1019D4001A807B689B6A9A1C7B689A6229E07B6800
:1019E4001B685B689BB2DBB29AB2FB681A807B68A7
:1019F4009B6A5A1C7B689A621BE07B681B69002BFC
:101A04000AD17B681B6858687B689B6A591C7A6892
:101A14009162C2B21A700CE07B681B685B68DAB230
:101A24007B689B6A581C7968886202F07F02D2B294
:101A34001A707B68DB8D9BB2013B9BB27A681946B6
:101A4400D185002B20D17B681B68DA687B681B6812
:101A540022F02002DA607B681B68DA687B681B6806
:101A640022F48072DA607B681B685A697B681B68A1
:101A740022F001025A617B68202283F83A207868B8
:101A840000F03CFA002302E0002300E002231846A1
:101A94001037BD4680BD000080B584B000AF7860CB
:101AA4007B681B681B6923F440517B68DA687B6898
:101AB4001B680A431A617B689A687B681B691A432E
:101AC4007B685B691343FB607B681B68DB6823F4FA
:101AD400B05323F00C037A681268F9680B43D3609F
:101AE4007B681B685B6923F440717B689A697B6837
:101AF4001B680A435A617B681B68524A93424ED161
:101B0400FFF7E6FBB860BA6813469B0013449A00DB
:101B14001A447B685B689B00B2FBF3F34A4AA2FB5E
:101B240003235B091901BA6813469B0013449A0006
:101B34001A447B685B689B00B2FBF3F2424BA3FB45
:101B440002035B09642000FB03F3D31A1B01323345
:101B54003D4AA2FB03235B0903F0F0031944BA686E
:101B640013469B0013449A001A447B685B689B00ED
:101B7400B2FBF3F2344BA3FB02035B09642000FBCA
:101B840003F3D31A1B0132332F4AA2FB03235B094D
:101B940003F00F027B681B680A449A604DE0FFF76C
:101BA40083FBB860BA6813469B0013449A001A4436
:101BB4007B685B689B00B2FBF3F3234AA2FB03231D
:101BC4005B091901BA6813469B0013449A001A442E
:101BD4007B685B689B00B2FBF3F21B4BA3FB020325
:101BE4005B09642000FB03F3D31A1B013233164A4A
:101BF400A2FB03235B0903F0F0031944BA681346FC
:101C04009B0013449A001A447B685B689B00B2FBF8
:101C1400F3F20D4BA3FB02035B09642000FB03F307
:101C2400D31A1B013233084AA2FB03235B0903F0D6
:101C34000F027B681B680A449A6000BF1037BD46D8
:101C440080BD00BF003801401F85EB5180B588B0CE
:101C540000AF07F1100300221A605A609A60DA603C
:101C6400464B9B69454A43F020039361434B9B6970
:101C740003F02003FB60FB68404B9B693F4A43F041
:101C8400040393613D4B9B6903F00403BB60BB6891
:101C94003A4B9B69394A43F010039361374B9B6974
:101CA40003F010037B607B6800224FF4807134489A
:101CB400FEF7DBFE002204213248FEF7D6FE0123A4
:101CC4003B61314B7B610223BB6107F11003194671
:101CD4002B48FEF749FD20233B612C4B7B610123FC
:101CE400BB6107F1100319462948FEF73DFD4FF487
:101CF40080733B6101237B610023BB610223FB6191
:101D040007F1100319461E48FEF72EFD4FF4004359
:101D14003B611E4B7B610123BB6107F11003194634
:101D24001748FEF721FD04233B6101237B61002357
:101D3400BB610223FB6107F1100319461148FEF74A
:101D440013FD002201210620FEF7CFFB0620FEF73B
:101D5400E8FB012201211720FEF7C7FB1720FEF73D
:101D6400E0FB022201212820FEF7BFFB2820FEF71A
:101D7400D8FB00BF2037BD4680BD00BF0010024025
:101D8400000801400014014000001110000021105F
:101D94000010014080B500AFFEF74CFA00F00EF8D9
:101DA400FFF754FF00F0EEF9012202490248FFF761
:101DB400A7FBFEE7700400208404002080B590B0E7
:101DC40000AF07F1180328220021184600F0A2FAF8
:101DD4003B1D00221A605A609A60DA601A6102237D
:101DE400BB610123BB621023FB6200237B6307F109
:101DF40018031846FEF782FE0346002B01D000F0BC
:101E040003F90F237B600023BB600023FB600023E6
:101E14003B6100237B613B1D00211846FFF7EEF870
:101E24000346002B01D000F0EFF800BF4037BD4659
:101E340080BD000080B582B000AF0346FB80642003
:101E4400FEF75AFAFB88202B05D0B3F5004F16D0C5
:101E5400012B29D041E00A20FEF74EFA2021214827
:101E6400FEF7ECFD0346002B32D14FF6FF73102230
:101E74001D491E48FFF7ABFA00F088F828E00A2055
:101E8400FEF73AFA4FF400411948FEF7D7FD03462E
:101E9400002B1FD14FF6FF73102216491348FFF78A
:101EA40096FA00F093F815E00A20FEF725FA0121CE
:101EB4000F48FEF7C3FD0346012B0DD14FF480718B
:101EC4000B48FEF7EAFD04210B48FEF7E6FD03E0AC
:101ED40000BF02E000BF00E000BF00BF0837BD46FE
:101EE40080BD00BF001001400800002084040020D1
:101EF40000080140180000200014014080B582B0A1
:101F040000AF78607B681B68194A93422CD1194B47
:101F14001B780A2B03D0174B1B78002B17D1164BB9
:101F24001B78013B154A0021D15415491348FEF78B
:101F340077F90346002B06D14FF6FF73112211499E
:101F44001148FFF744FA0C4B00221A700CE00A4BBC
:101F54001B781A46074B1978084B9954064B1B7883
:101F64000133DAB2044B1A7000BF0837BD4680BD96
:101F74000038014070040020680000206C0000203C
:101F840028000020340000208404002080B582B0A2
:101F940000AF00224FF480710B48FEF766FD00236A
:101FA4007B600AE04FF480710748FEF776FDC82095
:101FB400FEF7A2F97B6801337B607B68062BF1DDB9
:101FC40000BF0837BD4680BD0008014080B582B01F
:101FD40000AF002204210B48FEF747FD00237B607D
:101FE40009E004210748FEF758FDC820FEF784F9EC
:101FF4007B6801337B607B68062BF2DD00BF08370A
:10200400BD4680BD0014014080B400AF00BFBD4692
:1020140080BC704780B584B000AF164B9B69154AED
:1020240043F001039361134B9B6903F00103BB600D
:10203400BB68104BDB690F4A43F08053D3610D4BEF
:10204400DB6903F080537B607B680520FEF742FA6E
:10205400094B5B68FB60FB6823F0E063FB60FB6893
:1020640043F00073FB60044AFB68536000BF103701
:10207400BD4680BD001002400000014080B400AFA6
:1020840000BFBD4680BC704780B400AFFEE780B49B
:1020940000AFFEE780B400AFFEE780B400AFFEE718
:1020A40080B400AF00BFBD4680BC704780B400AFB1
:1020B40000BFBD4680BC704780B400AF00BFBD46C2
:1020C40080BC704780B500AFFEF7FAF800BF80BD52
:1020D40080B500AF0120FEF7F9FC00BF80BD80B5DC
:1020E40000AF2020FEF7F2FC00BF80BD80B500AF3A
:1020F4000448FFF759FA012203490248FFF700FA9E
:1021040000BF80BD840400207004002080B500AFAF
:102114004FF40040FEF7DAFC00BF80BD80B400AF8E
:10212400154B1B68144A43F001031360124B5A68A1
:102134001149124B13404B600F4B1B680E4A23F09E
:10214400847323F4803313600B4B1B680A4A23F413
:1021540080231360084B5B68074A23F4FE03536033
:10216400054B4FF41F029A60054B4FF000629A60D2
:1021740000BFBD4680BC7047001002400000FFF85D
:1021840000ED00E080B500AF114B124A1A60104B0D
:102194004FF4E1325A600E4B00229A600C4B00223D
:1021A400DA600B4B00221A61094B0C225A61084B6E
:1021B40000229A61064B0022DA610548FFF7BAF85B
:1021C4000346002B01D0FFF71FFF00BF80BD00BFF7
:1021D400840400200038014080B588B000AF7860E6
:1021E40007F1100300221A605A609A60DA607B6873
:1021F4001B68204A934239D11F4B9B691E4A43F402
:10220400804393611C4B9B6903F48043FB60FB6830
:10221400194B9B69184A43F004039361164B9B695D
:1022240003F00403BB60BB684FF400733B610223FB
:102234007B610323FB6107F1100319460F48FEF786
:1022440093FA4FF480633B6100237B610023BB61FD
:1022540007F1100319460948FEF786FA0022002107
:102264002520FEF742F92520FEF75BF900BF203751
:10227400BD4680BD00380140001002400008014006
:10228400002103E00B4B5B58435004310A480B4BCD
:1022940042189A42F6D30A4A02E0002342F8043B69
:1022A400084B9A42F9D3FFF739FF00F00FF8FFF714
:1022B40071FD704774230008000000204C000020CA
:1022C4004C000020C4040020FEE7000070B5002587
:1022D4000C4E0D4CA41BA410A54209D100F022F809
:1022E40000250A4E0A4CA41BA410A54205D170BDBA
:1022F40056F8253098470135EEE756F825309847CB
:102304000135F2E76C2300086C2300086C230008F5
:102314007023000803460244934200D1704703F837
:10232400011BF9E7F8B500BFF8BC08BC9E4670472E
:0C233400F8B500BFF8BC08BC9E4670471E
:1023400002030405060708090A0B0C0D0E0F1010F6
:102350000102000000000000000000000102030470
:0C23600006070809000000000102030449
:04236C00090200085A
:04237000E50100087B
:1023740010000000010000004B65792030207072CD
:1023840065737365642E0A004B6579203120707281
:1023940065737365642E0A00696E74657272757074
:1023A40074000000476F742027696E74657272753B
:0C23B4007074272E0A0000000024F400C2
:040000050800228548
:00000001FF
