:020000040800F2
:1000000000C00020A9360008092F0008152F00089D
:100010001B2F0008212F0008272F000800000000D8
:100020000000000000000000000000002D2F00086C
:10003000392F000800000000452F0008512F00084C
:10004000F1360008F1360008F1360008F1360008F4
:10005000F1360008F13600085D2F0008F13600087F
:10006000F1360008F1360008F1360008F1360008D4
:10007000F1360008F1360008F1360008F1360008C4
:10008000F1360008F1360008F1360008F1360008B4
:10009000F1360008F1360008F13600086B2F000831
:1000A000F1360008792F00088D2F0008A12F0008D5
:1000B000F1360008B52F0008F1360008F1360008C7
:1000C000F1360008F1360008F1360008F136000874
:1000D000F1360008C92F0008F1360008F136000893
:1000E000E92F0008F1360008F1360008F136000863
:1000F000F1360008F1360008F1360008F136000844
:10010000F1360008F1360008F1360008F136000833
:10011000F1360008F1360008F1360008F136000823
:10012000F1360008F1360008F1360008F136000813
:1001300000000000000000000000000000000000BF
:1001400000000000000000000000000000000000AF
:10015000000000000000000000000000000000009F
:10016000000000000000000000000000000000008F
:10017000000000000000000000000000000000007F
:10018000000000000000000000000000000000006F
:10019000000000000000000000000000000000005F
:1001A000000000000000000000000000000000004F
:1001B000000000000000000000000000000000003F
:1001C000000000000000000000000000000000002F
:1001D000000000000000000000000000000000001F
:0401E0005FF8E0F1F3
:1001E40010B5054C237833B9044B13B10448AFF36D
:1001F40000800123237010BD740000200000000063
:100204002440000808B5034B1BB103490348AFF36E
:10021400008008BD00000000780000202440000891
:1002240080B500AF084B1B68074A43F01003136006
:10023400032000F045F9002000F008F802F02EFE3B
:100244000023184680BD00BF0020024080B582B064
:1002540000AF7860124B1A68124B1B7819464FF4A2
:100264007A73B3FBF1F3B2FBF3F3184600F05DF9D4
:100274000346002B01D001230EE07B680F2B0AD824
:10028400002279684FF0FF3000F025F9064A7B68B8
:100294001360002300E0012318460837BD4680BDE3
:1002A4000C000020040000200000002080B400AFF7
:1002B400054B1B781A46054B1B681344034A13600D
:1002C40000BFBD4680BC704704000020A000002091
:1002D40080B400AF024B1B681846BD4680BC704713
:1002E400A000002080B584B000AF7860FFF7F0FF75
:1002F400B8607B68FB60FB68B3F1FF3F05D0094B36
:100304001B781A46FB681344FB6000BFFFF7E0FF4D
:100314000246BB68D31AFA689A42F7D800BF10376E
:10032400BD4680BD0400002080B485B000AF786075
:100334007B6803F00703FB600C4BDB68BB60BA68A7
:100344004FF6FF031340BB60FB681A02BB681343FC
:1003540043F0BF6343F40033BB60044ABB68D3601B
:1003640000BF1437BD4680BC704700BF00ED00E0FD
:1003740080B400AF044BDB681B0A03F00703184684
:10038400BD4680BC704700BF00ED00E080B483B080
:1003940000AF0346FB7197F90730002B0BDBFB79A9
:1003A40003F01F02064997F907305B09012000FAA0
:1003B40002F241F8232000BF0C37BD4680BC7047D1
:1003C40000E100E080B483B000AF03463960FB7104
:1003D40097F90730002B0ADB3B68DAB20C4997F92E
:1003E40007301201D2B20B4483F800230AE03B68C1
:1003F400DAB20849FB7903F00F03043B1201D2B2CD
:100404000B441A7600BF0C37BD4680BC704700BF52
:1004140000E100E000ED00E080B489B000AFF860D6
:10042400B9607A60FB6803F00703FB61FB69C3F101
:100434000703042B28BF0423BB61FB690433062B89
:1004440002D9FB69033B00E000237B614FF0FF32DC
:10045400BB6902FA03F3DA43BB681A407B699A402A
:100464004FF0FF317B6901FA03F3D9437B680B40FA
:10047400134318462437BD4680BC704780B582B00C
:1004840000AF78607B68013BB3F1807F01D3012327
:100494000FE00A4A7B68013B53600F214FF0FF30A5
:1004A400FFF790FF054B00229A60044B07221A6065
:1004B400002318460837BD4680BD00BF10E000E0A9
:1004C40080B582B000AF78607868FFF72DFF00BF79
:1004D4000837BD4680BD80B586B000AF0346B9601D
:1004E4007A60FB7300237B61FFF742FF78617A68CF
:1004F400B9687869FFF790FF024697F90F30114603
:100504001846FFF75FFF00BF1837BD4680BD80B5B2
:1005140082B000AF0346FB7197F907301846FFF726
:1005240035FF00BF0837BD4680BD80B582B000AF3F
:1005340078607868FFF7A2FF034618460837BD467F
:1005440080BD000080B584B000AF78600023FB73E9
:100554007B6893F82130022B05D07B6804229A63D0
:100564000123FB73D6E07B681B681A687B681B68F1
:1005740022F00E021A607B681B681A687B681B688D
:1005840022F001021A607B681B681A46644B9A4287
:1005940058D97B681B68634A93424FD07B681B68B9
:1005A400614A934248D07B681B68604A934240D0BA
:1005B4007B681B685E4A934238D07B681B685D4A3F
:1005C400934230D07B681B685B4A934228D07B6897
:1005D4001B68534A934220D07B681B68574A934256
:1005E40019D07B681B68564A934212D07B681B68FB
:1005F400544A93420AD07B681B68534A934202D1FF
:100604004FF480531BE04FF4803318E04FF48073B1
:1006140015E0102313E0012311E04FF080730EE086
:100624004FF480130BE04FF4803308E04FF4805311
:1006340005E04FF4807302E0102300E00123434AF5
:10064400536057E07B681B68364A93424FD07B68FF
:100654001B68354A934248D07B681B68334A9342EF
:1006640040D07B681B68324A934238D07B681B6851
:10067400304A934230D07B681B682F4A934228D07B
:100684007B681B68264A934220D07B681B682B4AF0
:10069400934219D07B681B68294A934212D07B6825
:1006A4001B68284A93420AD07B681B68264A9342F7
:1006B40002D14FF480531BE04FF4803318E04FF421
:1006C400807315E0102313E0012311E04FF08073D1
:1006D4000EE04FF480130BE04FF4803308E04FF446
:1006E400805305E04FF4807302E0102300E00123FF
:1006F400174A53607B68012283F821207B6800221B
:1007040083F820207B685B6B002B03D07B685B6BDA
:1007140078689847FB7B18461037BD4680BD00BFFC
:1007240080000240080002401C00024030000240E9
:1007340044000240580002406C0002400804024099
:100744001C040240300402404404024000040240FD
:100754000000024080B48BB000AF786039600023A1
:100764007B6200233B6233E101227B6A02FA03F3DA
:10077400FB613B681B68FA691340BB61BA69FB699A
:100784009A4240F022813B685B68122B34D0122BD2
:100794000DD8022B2BD0022B04D8002B31D0012BE7
:1007A4001CD048E0032B43D0112B1BD043E08F4ACD
:1007B400934226D08D4A934206D88D4A934220D044
:1007C4008C4A93421DD036E08B4A934219D08B4A0F
:1007D400934216D08A4A934213D02CE03B68DB68DC
:1007E4003B6228E03B68DB6804333B6223E03B6800
:1007F400DB6808333B621EE03B68DB680C333B621A
:1008040019E03B689B68002B02D104233B6212E091
:100814003B689B68012B05D108233B627B68FA691E
:100824001A6108E008233B627B68FA695A6102E0B6
:1008340000233B6200BFBB69FF2B01D87B6801E04A
:100844007B6804337B61BB69FF2B02D87B6A9B0006
:1008540002E07B6A083B9B003B617B691A680F21BD
:100864003B6901FA03F3DB431A40396A3B6901FA35
:1008740003F31A437B691A603B685B6803F0805397
:10088400002B00F0A2805F4B9B695E4A43F001039A
:1008940093615C4B9B6903F00103BB60BB685A4ADC
:1008A4007B6A9B08023352F82330FB607B6A03F0B7
:1008B40003039B000F2202FA03F3DB43FA6813409D
:1008C400FB607B68514A93421FD07B68504A934235
:1008D40019D07B684F4A934213D07B684E4A9342A7
:1008E4000DD07B684D4A934207D07B684C4A9342B3
:1008F40001D105230AE0062308E0042306E00323CC
:1009040004E0022302E0012300E000237A6A02F0FB
:10091400030292009340FA681343FB603A497B6AEE
:100924009B080233FA6841F823203B685B6803F4B0
:100934008033002B06D03B4B1A683A49BB691343FA
:100944000B6006E0374B1A68BB69DB43354913403B
:100954000B603B685B6803F40033002B06D0314B1B
:100964005A683049BB6913434B6006E02D4B5A6803
:10097400BB69DB432B4913404B603B685B6803F462
:100984008013002B06D0274B9A682649BB69134372
:100994008B6006E0234B9A68BB69DB432149134013
:1009A4008B603B685B6803F40013002B06D01D4B7F
:1009B400DA681C49BB691343CB6006E0194BDA685B
:1009C400BB69DB4317491340CB607B6A01337B620D
:1009D4003B681A687B6A22FA03F3002B7FF4C4AEE7
:1009E40000BF2C37BD4680BC704700BF00002110FB
:1009F400000011100000121000003110000032102D
:100A040000002210001002400000014000080140D4
:100A1400000C014000100140001401400018014086
:100A2400001C01400004014080B483B000AF786032
:100A34000B467B8013467B707B78002B03D07A882F
:100A44007B681A6103E07B881A047B681A6100BF23
:100A54000C37BD4680BC704780B582B000AF0346FA
:100A6400FB80084B5A69FB881340002B06D0054ACB
:100A7400FB885361FB88184602F0B3F900BF0837BE
:100A8400BD4680BD0004014080B586B000AF7860EB
:100A94007B68002B01D101236CE27B681B6803F0A7
:100AA4000103002B00F08780924B5B6803F00C037A
:100AB400042B0CD08F4B5B6803F00C03082B12D172
:100AC4008C4B5B6803F48033B3F5803F0BD1894BC7
:100AD4001B6803F40033002B6CD07B685B68002B2D
:100AE40068D1012346E27B685B68B3F5803F06D199
:100AF400804B1B687F4A43F4803313602EE07B688D
:100B04005B68002B0CD17B4B1B687A4A23F480333F
:100B14001360784B1B68774A23F4802313601DE02D
:100B24007B685B68B3F5A02F0CD1724B1B68714ACC
:100B340043F4802313606F4B1B686E4A43F4803385
:100B440013600BE06B4B1B686A4A23F48033136019
:100B5400684B1B68674A23F4802313607B685B68D7
:100B6400002B13D0FFF7B4FB386108E0FFF7B0FBAC
:100B740002463B69D31A642B01D90323FAE15D4B86
:100B84001B6803F40033002BF0D014E0FFF7A0FB44
:100B9400386108E0FFF79CFB02463B69D31A642BDB
:100BA40001D90323E6E1534B1B6803F40033002B04
:100BB400F0D100E000BF7B681B6803F00203002B48
:100BC40063D04C4B5B6803F00C03002B0BD0494BF8
:100BD4005B6803F00C03082B1CD1464B5B6803F4E1
:100BE4008033002B16D1434B1B6803F00203002B08
:100BF40005D07B681B69012B01D00123BAE13D4B71
:100C04001B6823F0F8027B685B69DB0039491343F6
:100C14000B603AE07B681B69002B20D0364B012225
:100C24001A60FFF755FB386108E0FFF751FB0246F5
:100C34003B69D31A022B01D903239BE12D4B1B687B
:100C440003F00203002BF0D02A4B1B6823F0F802B8
:100C54007B685B69DB00274913430B6015E0264B77
:100C640000221A60FFF734FB386108E0FFF730FB1D
:100C740002463B69D31A022B01D903237AE11D4BA7
:100C84001B6803F00203002BF0D17B681B6803F0A0
:100C94000803002B3AD07B689B69002B19D0174BB3
:100CA40001221A60FFF714FB386108E0FFF710FB1C
:100CB40002463B69D31A022B01D903235AE10D4B97
:100CC4005B6A03F00203002BF0D0012000F0DAFA93
:100CD4001CE00A4B00221A60FFF7FAFA38610FE0B1
:100CE400FFF7F6FA02463B69D31A022B08D903230D
:100CF40040E100BF00100240000042428004424232
:100D04009E4B5B6A03F00203002BE9D17B681B68EE
:100D140003F00403002B00F0A6800023FB75974B1F
:100D2400DB6903F08053002B0DD1944BDB69934AAC
:100D340043F08053D361914BDB6903F08053BB6074
:100D4400BB680123FB758E4B1B6803F48073002B77
:100D540018D18B4B1B688A4A43F480731360FFF7E6
:100D6400B7FA386108E0FFF7B3FA02463B69D31AD1
:100D7400642B01D90323FDE0814B1B6803F48073CA
:100D8400002BF0D07B68DB68012B06D17B4B1B6A00
:100D94007A4A43F0010313622DE07B68DB68002B81
:100DA4000CD1764B1B6A754A23F001031362734B13
:100DB4001B6A724A23F0040313621CE07B68DB683D
:100DC400052B0CD16D4B1B6A6C4A43F00403136270
:100DD4006A4B1B6A694A43F0010313620BE0674BD9
:100DE4001B6A664A23F001031362644B1B6A634A5D
:100DF40023F0040313627B68DB68002B15D0FFF734
:100E040067FA38610AE0FFF763FA02463B69D31ACE
:100E140041F28832934201D90323ABE0574B1B6A5A
:100E240003F00203002BEED014E0FFF751FA38610F
:100E34000AE0FFF74DFA02463B69D31A41F28832C1
:100E4400934201D9032395E04C4B1B6A03F0020340
:100E5400002BEED1FB7D012B05D1484BDB69474AC2
:100E640023F08053D3617B68DB69002B00F0818021
:100E7400424B5B6803F00C03082B61D07B68DB6991
:100E8400022B46D13F4B00221A60FFF721FA38614A
:100E940008E0FFF71DFA02463B69D31A022B01D979
:100EA400032367E0354B1B6803F00073002BF0D17C
:100EB4007B681B6AB3F5803F08D1304B5B6823F431
:100EC40000327B689B682D4913434B602B4B5B6856
:100ED40023F474127B68196A7B685B6A0B432749A5
:100EE40013434B60274B01221A60FFF7F1F9386175
:100EF40008E0FFF7EDF902463B69D31A022B01D94A
:100F0400032337E01D4B1B6803F00073002BF0D064
:100F14002FE01C4B00221A60FFF7DAF9386108E071
:100F2400FFF7D6F902463B69D31A022B01D90323F2
:100F340020E0124B1B6803F00073002BF0D118E083
:100F44007B68DB69012B01D1012313E00B4B5B6848
:100F5400FB60FB6803F480327B681B6A9A4206D10B
:100F6400FB6803F470127B685B6A9A4201D0012328
:100F740000E0002318461837BD4680BD001002402B
:100F8400007000406000424280B584B000AF7860D9
:100F940039607B68002B01D10123D0E06A4B1B68C8
:100FA40003F007033A689A4210D9674B1B6823F091
:100FB400070265493B6813430B60634B1B6803F0EE
:100FC40007033A689A4201D00123B8E07B681B68A2
:100FD40003F00203002B20D07B681B6803F004039A
:100FE400002B05D0594B5B68584A43F4E0635360C7
:100FF4007B681B6803F00803002B05D0534B5B6828
:10100400524A43F460535360504B5B6823F0F00240
:101014007B689B684D4913434B607B681B6803F0F6
:101024000103002B40D07B685B68012B07D1474B41
:101034001B6803F40033002B15D101237FE07B6888
:101044005B68022B07D1414B1B6803F00073002B34
:1010540009D1012373E03D4B1B6803F00203002B0D
:1010640001D101236BE0394B5B6823F003027B68F9
:101074005B68364913434B60FFF72AF9F8600AE0CE
:10108400FFF726F90246FB68D31A41F288329342ED
:1010940001D9032353E02D4B5B6803F00C027B68FA
:1010A4005B689B009A42EBD1274B1B6803F0070354
:1010B4003A689A4210D2244B1B6823F00702224953
:1010C4003B6813430B60204B1B6803F007033A682B
:1010D4009A4201D0012332E07B681B6803F00403C9
:1010E400002B08D0194B5B6823F4E0627B68DB6853
:1010F400164913434B607B681B6803F00803002BFD
:1011040009D0124B5B6823F460527B681B69DB00D7
:101114000E4913434B6000F021F801460B4B5B680A
:101124001B0903F00F030A4AD35C21FA03F3094AAB
:101134001360094B1B681846FFF788F8002318460C
:101144001037BD4680BD00BF0020024000100240A1
:10115400584000080C0000200000002090B48AB021
:1011640000AF2A4B3C1D0FCB84E80F00284B1B8893
:101174003B800023FB610023BB6100237B620023CF
:101184007B6100233B62234B5B68FB61FB6903F0DB
:101194000C03042B02D0082B03D02DE01E4B3B6222
:1011A4002DE0FB699B0C03F00F0307F128021344A5
:1011B40013F8243C7B61FB6903F48033002B13D0C8
:1011C400144B5B685B0C03F0010307F12802134422
:1011D40013F8283CBB617B690F4A02FB03F2BB692D
:1011E400B2FBF3F37B6204E07B690C4A02FB03F37A
:1011F4007B627B6A3B6202E0074B3B6200BF3B6A57
:1012040018462837BD4690BC704700BF3C400008D4
:101214004C4000080010024000127A0000093D0012
:1012240080B400AF024B1B681846BD4680BC7047B3
:101234000C00002080B500AFFFF7F2FF0146054B1C
:101244005B681B0A03F00703034AD35C21FA03F328
:10125400184680BD001002406840000880B500AF09
:10126400FFF7DEFF0146054B5B68DB0A03F007036B
:10127400034AD35C21FA03F3184680BD00100240F0
:101284006840000880B485B000AF78600A4B1B68E2
:101294000A4AA2FB03235B0A7A6802FB03F3FB609E
:1012A40000BFFB685A1EFA60002BF9D100BF143747
:1012B400BD4680BC704700BF0C000020D34D6210B7
:1012C40080B582B000AF78607B68002B01D1012328
:1012D4001DE07B6893F83D30DBB2002B06D17B68C0
:1012E400002283F83C20786802F082F87B680222AE
:1012F40083F83D207B681A687B68043319461046DE
:1013040000F056FC7B68012283F83D200023184638
:101314000837BD4680BD80B485B000AF78607B6877
:101324001B68DA687B681B6842F00102DA607B683C
:101334001B689B6803F00703FB60FB68062B07D060
:101344007B681B681A687B681B6842F001021A609C
:10135400002318461437BD4680BC704780B582B060
:1013640000AF78607B68002B01D101231DE07B680E
:1013740093F83D30DBB2002B06D17B68002283F862
:101384003C20786800F015F87B68022283F83D2041
:101394007B681A687B6804331946104600F008FC21
:1013A4007B68012283F83D20002318460837BD4698
:1013B40080BD80B483B000AF786000BF0C37BD46F9
:1013C40080BC704780B584B000AF786039603B68FA
:1013D4000C2B41D801A252F823F000BF15140008C9
:1013E4005D1400085D1400085D140008271400084B
:1013F4005D1400085D1400085D1400083914000829
:101404005D1400085D1400085D1400084B14000806
:101414007B681B68DA687B681B6842F00202DA604A
:101424001BE07B681B68DA687B681B6842F0040277
:10143400DA6012E07B681B68DA687B681B6842F03C
:101444000802DA6009E07B681B68DA687B681B685D
:1014540042F01002DA6000E000BF7B681B680122E2
:101464003968184600F060FE7B681B68154A934291
:1014740004D07B681B68144A934201D1012300E025
:101484000023002B07D07B681B685A6C7B681B68A1
:1014940042F400425A647B681B689B6803F00703AC
:1014A400FB60FB68062B07D07B681B681A687B68A7
:1014B4001B6842F001021A60002318461037BD462B
:1014C40080BD00BF002C01400034014080B582B0D3
:1014D40000AF78607B68002B01D101231DE07B689D
:1014E40093F83D30DBB2002B06D17B68002283F8F1
:1014F4003C20786800F015F87B68022283F83D20D0
:101504007B681A687B6804331946104600F050FB68
:101514007B68012283F83D20002318460837BD4626
:1015240080BD80B483B000AF786000BF0C37BD4687
:1015340080BC704780B584B000AF786039607B6848
:101544001B6801223968184600F0EEFD7B681B68B1
:10155400154A934204D07B681B68144A934201D114
:10156400012300E00023002B07D07B681B685A6C22
:101574007B681B6842F400425A647B681B689B6862
:1015840003F00703FB60FB68062B07D07B681B682E
:101594001A687B681B6842F001021A60002318462F
:1015A4001037BD4680BD00BF002C0140003401400F
:1015B40080B582B000AF78607B681B681B6903F05C
:1015C4000203022B22D17B681B68DB6803F0020351
:1015D400022B1BD17B681B686FF002021A617B68C7
:1015E40001221A777B681B689B6903F00303002BB5
:1015F40003D0786800F0C1FA05E0786801F004FCD3
:10160400786800F0C3FA7B6800221A777B681B684D
:101614001B6903F00403042B22D17B681B68DB687D
:1016240003F00403042B1BD17B681B686FF00402D6
:101634001A617B6802221A777B681B689B6903F432
:101644004073002B03D0786800F097FA05E07868BF
:1016540001F0DAFB786800F099FA7B6800221A77C7
:101664007B681B681B6903F00803082B22D17B6885
:101674001B68DB6803F00803082B1BD17B681B681D
:101684006FF008021A617B6804221A777B681B6872
:10169400DB6903F00303002B03D0786800F06DFAD4
:1016A40005E0786801F0B0FB786800F06FFA7B68B9
:1016B40000221A777B681B681B6903F01003102B48
:1016C40022D17B681B68DB6803F01003102B1BD14D
:1016D4007B681B686FF010021A617B6808221A7716
:1016E4007B681B68DB6903F44073002B03D07868C4
:1016F40000F043FA05E0786801F086FB786800F0B2
:1017040045FA7B6800221A777B681B681B6903F023
:101714000103012B0ED17B681B68DB6803F0010316
:10172400012B07D17B681B686FF001021A6178688E
:1017340001F061FB7B681B681B6903F08003802B4D
:101744000ED17B681B68DB6803F08003802B07D114
:101754007B681B686FF080021A61786800F0A6FD50
:101764007B681B681B6903F04003402B0ED17B6828
:101774001B68DB6803F04003402B07D17B681B68C0
:101784006FF040021A61786800F009FA7B681B6800
:101794001B6903F02003202B0ED17B681B68DB68D8
:1017A40003F02003202B07D17B681B686FF0200215
:1017B4001A61786800F071FD00BF0837BD4680BD2E
:1017C40080B584B000AFF860B9607A60FB6893F8C4
:1017D4003C30012B01D102234EE0FB68012283F847
:1017E4003C20FB68022283F83D207B680C2B39D80F
:1017F40001A252F823F000BF31180008691800084C
:1018040069180008691800083F18000869180008DA
:1018140069180008691800084D18000869180008BC
:1018240069180008691800085B180008FB681B6841
:10183400B968184600F036FA15E0FB681B68B96809
:10184400184600F09FFA0EE0FB681B68B96818465A
:1018540000F00CFB07E0FB681B68B968184600F051
:1018640079FB00E000BFFB68012283F83D20FB68A0
:10187400002283F83C20002318461037BD4680BD63
:1018840080B584B000AFF860B9607A60FB6893F803
:101894003C30012B01D10223B4E0FB68012283F820
:1018A4003C20FB68022283F83D207B680C2B00F26D
:1018B4009F8001A252F823F0F1180008F5190008DE
:1018C400F5190008F519000831190008F519000880
:1018D400F5190008F519000873190008F51900082E
:1018E400F5190008F5190008B3190008FB681B680E
:1018F400B968184600F0D6F9FB681B689A69FB685A
:101904001B6842F008029A61FB681B689A69FB68CD
:101914001B6822F004029A61FB681B689969BB6822
:101924001A69FB681B680A439A6162E0FB681B68DA
:10193400B968184600F026FAFB681B689A69FB68C8
:101944001B6842F400629A61FB681B689A69FB6831
:101954001B6822F480629A61FB681B689969BB6802
:101964001B691A02FB681B680A439A6141E0FB6821
:101974001B68B968184600F079FAFB681B68DA69D5
:10198400FB681B6842F00802DA61FB681B68DA69CD
:10199400FB681B6822F00402DA61FB681B68D969E2
:1019A400BB681A69FB681B680A43DA6121E0FB68BB
:1019B4001B68B968184600F0CDFAFB681B68DA6941
:1019C400FB681B6842F40062DA61FB681B68DA6931
:1019D400FB681B6822F48062DA61FB681B68D969C2
:1019E400BB681B691A02FB681B680A43DA6100E0E2
:1019F40000BFFB68012283F83D20FB68002283F8C6
:101A04003C20002318461037BD4680BD80B584B005
:101A140000AF786039607B6893F83C30012B01D1CA
:101A24000223A6E07B68012283F83C207B68022223
:101A340083F83D207B681B689B68FB60FB6823F090
:101A44007703FB60FB6823F47F43FB607B681B68C0
:101A5400FA689A603B681B68402B67D0402B0BD810
:101A6400102B73D0102B02D8002B6FD078E0202BD2
:101A74006CD0302B6AD073E0702B0DD0702B04D84F
:101A8400502B33D0602B41D06AE0B3F5805F66D031
:101A9400B3F5005F17D063E07B6818683B6899680A
:101AA4003B685A683B68DB6800F01FFB7B681B6877
:101AB4009B68FB60FB6843F07703FB607B681B68F3
:101AC400FA689A604CE07B6818683B6899683B68E0
:101AD4005A683B68DB6800F008FB7B681B689A68FF
:101AE4007B681B6842F480429A6039E07B6818681E
:101AF4003B6859683B68DB681A4600F07FFA7B68EC
:101B04001B685021184600F0D6FA29E07B68186853
:101B14003B6859683B68DB681A4600F09DFA7B68AD
:101B24001B686021184600F0C6FA19E07B68186843
:101B34003B6859683B68DB681A4600F05FFA7B68CB
:101B44001B684021184600F0B6FA09E07B681A6861
:101B54003B681B681946104600F0ADFA00E000BF70
:101B64007B68012283F83D207B68002283F83C20B7
:101B7400002318461037BD4680BD80B483B000AF43
:101B8400786000BF0C37BD4680BC704780B483B01A
:101B940000AF786000BF0C37BD4680BC704780B48E
:101BA40083B000AF786000BF0C37BD4680BC70477F
:101BB40080B485B000AF786039607B681B68FB60D7
:101BC4007B68334A934213D07B68324A93420FD0E6
:101BD4007B68B3F1804F0BD07B682F4A934207D0C8
:101BE4007B682E4A934203D07B682D4A934208D1E6
:101BF400FB6823F07003FB603B685B68FA6813437F
:101C0400FB607B68224A934213D07B68214A93424B
:101C14000FD07B68B3F1804F0BD07B681E4A934290
:101C240007D07B681D4A934203D07B681C4A9342C9
:101C340008D1FB6823F44073FB603B68DB68FA68F7
:101C44001343FB60FB6823F080023B685B6913432A
:101C5400FB607B68FA681A603B689A687B68DA62A2
:101C64003B681A687B689A627B68094A934203D08E
:101C74007B68084A934203D13B681A697B681A63FC
:101C84007B6801225A6100BF1437BD4680BC70478F
:101C9400002C0140003401400004004000080040D2
:101CA400000C004080B487B000AF786039607B6876
:101CB4001B6A23F001027B681A627B681B6A7B61E2
:101CC4007B685B683B617B689B69FB60FB6823F016
:101CD4007003FB60FB6823F00303FB603B681B6835
:101CE400FA681343FB607B6923F002037B613B6862
:101CF4009B687A6913437B617B68204A934203D0D3
:101D04007B681F4A93420CD17B6923F008037B61F3
:101D14003B68DB687A6913437B617B6923F00403C6
:101D24007B617B68154A934203D07B68144A9342D3
:101D340011D13B6923F480733B613B6923F4007345
:101D44003B613B685B693A6913433B613B689B6950
:101D54003A6913433B617B683A695A607B68FA6865
:101D64009A613B685A687B685A637B687A691A622D
:101D740000BF1C37BD4680BC704700BF002C01402B
:101D84000034014080B487B000AF786039607B686C
:101D94001B6A23F010027B681A627B681B6A7B61F2
:101DA4007B685B683B617B689B69FB60FB6823F431
:101DB400E043FB60FB6823F44073FB603B681B68F3
:101DC4001B02FA681343FB607B6923F020037B61E9
:101DD4003B689B681B017A6913437B617B68214ADA
:101DE400934203D07B68204A93420DD17B6923F050
:101DF40080037B613B68DB681B017A6913437B6169
:101E04007B6923F040037B617B68164A934203D0CD
:101E14007B68154A934213D13B6923F480633B6189
:101E24003B6923F400633B613B685B699B003A694F
:101E340013433B613B689B699B003A6913433B61D5
:101E44007B683A695A607B68FA689A613B685A68A9
:101E54007B689A637B687A691A6200BF1C37BD4647
:101E640080BC7047002C01400034014080B487B02E
:101E740000AF786039607B681B6A23F480727B68EA
:101E84001A627B681B6A7B617B685B683B617B6869
:101E9400DB69FB60FB6823F07003FB60FB6823F0E5
:101EA4000303FB603B681B68FA681343FB607B69B0
:101EB40023F400737B613B689B681B027A691343BC
:101EC4007B617B68214A934203D07B68204A93421A
:101ED4000DD17B6923F400637B613B68DB681B02E3
:101EE4007A6913437B617B6923F480637B617B683C
:101EF400164A934203D07B68154A934213D13B6937
:101F040023F480533B613B6923F400533B613B68FA
:101F14005B691B013A6913433B613B689B691B0185
:101F24003A6913433B617B683A695A607B68FA6893
:101F3400DA613B685A687B68DA637B687A691A629B
:101F440000BF1C37BD4680BC704700BF002C014059
:101F54000034014080B487B000AF786039607B689A
:101F64001B6A23F480527B681A627B681B6A3B619C
:101F74007B685B687B617B68DB69FB60FB6823F4DF
:101F8400E043FB60FB6823F44073FB603B681B6821
:101F94001B02FA681343FB603B6923F400533B6163
:101FA4003B689B681B033A6913433B617B68114A96
:101FB400934203D07B68104A934209D17B6923F48E
:101FC40080437B613B685B699B017A6913437B6156
:101FD4007B687A695A607B68FA68DA613B685A6898
:101FE4007B681A647B683A691A6200BF1C37BD4675
:101FF40080BC7047002C01400034014080B487B09D
:1020040000AFF860B9607A60FB681B6A7B61FB68AB
:102014001B6A23F00102FB681A62FB689B693B613F
:102024003B6923F0F0033B617B681B013A6913436E
:102034003B617B6923F00A037B617A69BB681343C4
:102044007B61FB683A699A61FB687A691A6200BF2E
:102054001C37BD4680BC704780B487B000AFF860C1
:10206400B9607A60FB681B6A23F01002FB681A628D
:10207400FB689B697B61FB681B6A3B617B6923F49A
:1020840070437B617B681B037A6913437B613B6903
:1020940023F0A0033B61BB681B013A6913433B6116
:1020A400FB687A699A61FB683A691A6200BF1C3757
:1020B400BD4680BC704780B485B000AF786039609D
:1020C4007B689B68FB60FB6823F07003FB603A68E5
:1020D400FB68134343F00703FB607B68FA689A606C
:1020E40000BF1437BD4680BC704780B487B000AFD2
:1020F400F860B9607A603B60FB689B687B617B69D0
:1021040023F47F437B613B681A027B681A43BB68F4
:1021140013437A6913437B61FB687A699A6000BF51
:102124001C37BD4680BC704780B487B000AFF860F0
:10213400B9607A60BB6803F01F03012202FA03F35B
:102144007B61FB681A6A7B69DB431A40FB681A628D
:10215400FB681A6ABB6803F01F03796801FA03F38A
:102164001A43FB681A6200BF1C37BD4680BC704727
:1021740080B485B000AF786039607B6893F83C30F8
:10218400012B01D1022332E07B68012283F83C2039
:102194007B68022283F83D207B681B685B68FB60D8
:1021A4007B681B689B68BB60FB6823F07003FB6063
:1021B4003B681B68FA681343FB60BB6823F0800329
:1021C400BB603B685B68BA681343BB607B681B6891
:1021D400FA685A607B681B68BA689A607B68012257
:1021E40083F83D207B68002283F83C2000231846B6
:1021F4001437BD4680BC704780B485B000AF7860AA
:1022040039600023FB607B6893F83C30012B01D1DB
:1022140002233DE07B68012283F83C20FB6823F025
:10222400FF023B68DB681343FB60FB6823F44072E6
:102234003B689B681343FB60FB6823F480623B6844
:102244005B681343FB60FB6823F400623B681B6814
:102254001343FB60FB6823F480523B681B69134300
:10226400FB60FB6823F400523B685B691343FB602B
:10227400FB6823F480423B68DB691343FB607B68A3
:102284001B68FA685A647B68002283F83C200023A8
:1022940018461437BD4680BC704780B483B000AF85
:1022A400786000BF0C37BD4680BC704780B483B0F3
:1022B40000AF786000BF0C37BD4680BC704780B566
:1022C40082B000AF78607B68002B01D101233FE02E
:1022D4007B6893F83930DBB2002B06D17B6800228F
:1022E40083F83820786801F07BF97B68242283F82E
:1022F40039207B681B68DA687B681B6822F400520B
:10230400DA60786800F08EFB7B681B681A697B686A
:102314001B6822F490421A617B681B685A697B68C7
:102324001B6822F02A025A617B681B68DA687B68A2
:102334001B6842F40052DA607B680022DA637B682F
:10234400202283F839207B68202283F83A20002356
:1023540018460837BD4680BD80B588B002AFF86026
:10236400B9603B601346FB8000237B61FB6893F8F4
:102374003930DBB2202B40F08380BB68002B02D0C5
:10238400FB88002B01D101237BE0FB6893F83830F4
:10239400012B01D1022374E0FB68012283F8382069
:1023A400FB680022DA63FB68212283F83920FDF7F9
:1023B4008FFF7861FB68FA889A84FB68FA88DA846C
:1023C40042E0FB68DB8C9BB2013B9AB2FB68DA8487
:1023D400FB689B68B3F5805F22D13B6800937B69FF
:1023E40000228021F86800F0B3F90346002B01D0E5
:1023F400032346E0BB683B613B691B881A46FB68C4
:102404001B68C2F308025A60FB681B69002B03D1E6
:10241400BB680233BB6017E0BB680133BB6013E0E9
:102424003B6800937B6900228021F86800F090F9F2
:102434000346002B01D0032323E0BB685A1CBA6077
:102444001A78FB681B685A60FB68DB8C9BB2002B14
:10245400B7D13B6800937B6900224021F86800F003
:1024640077F90346002B01D003230AE0FB682022FE
:1024740083F83920FB68002283F83820002300E029
:10248400022318461837BD4680BD80B485B000AF1E
:10249400F860B9601346FB80FB6893F83A30DBB20E
:1024A400202B40D1BB68002B02D0FB88002B01D12C
:1024B400012339E0FB6893F83830012B01D1022362
:1024C40032E0FB68012283F83820FB68BA689A621C
:1024D400FB68FA889A85FB68FA88DA85FB6800222B
:1024E400DA63FB68222283F83A20FB68002283F82F
:1024F4003820FB681B68DA68FB681B6842F480724A
:10250400DA60FB681B685A69FB681B6842F00102C9
:102514005A61FB681B68DA68FB681B6842F020029A
:10252400DA60002300E0022318461437BD4680BC5D
:102534007047000080B588B000AF78607B681B6886
:102544001B68FB617B681B68DB68BB617B681B687D
:102554005B697B6100233B610023FB60FB6903F043
:102564000F033B613B69002B0DD1FB6903F0200392
:10257400002B08D0BB6903F02003002B03D078683C
:1025840000F0CEF9CCE03B69002B00F0AB807B6916
:1025940003F00103002B05D1BB6903F49073002BF6
:1025A40000F0A080FB6903F00103002B0AD0BB6993
:1025B40003F48073002B05D07B68DB6B43F00102CE
:1025C4007B68DA63FB6903F00403002B0AD07B69A0
:1025D40003F00103002B05D07B68DB6B43F00202A0
:1025E4007B68DA63FB6903F00203002B0AD07B6982
:1025F40003F00103002B05D07B68DB6B43F004027E
:102604007B68DA63FB6903F00803002B0AD07B695B
:1026140003F00103002B05D07B68DB6B43F0080259
:102624007B68DA637B68DB6B002B78D0FB6903F093
:102634002003002B07D0BB6903F02003002B02D03A
:10264400786800F06DF97B681B685B6903F04003F0
:10265400002B14BF01230023DBB2FB607B68DB6B20
:1026640003F00803002B02D1FB68002B31D07868FB
:1026740000F0B8F87B681B685B6903F04003002B2B
:1026840023D07B681B685A697B681B6822F0400270
:102694005A617B685B6B002B13D07B685B6B224AAF
:1026A4005A637B685B6B1846FDF74CFF0346002BAF
:1026B40016D07B685B6B5B6B7A68526B10469847ED
:1026C4000EE0786800F03BF80AE0786800F037F82C
:1026D40006E0786800F033F87B680022DA631EE0D5
:1026E40000BF1CE0FB6903F08003002B08D0BB692A
:1026F40003F08003002B03D0786800F0A4F80FE007
:10270400FB6903F04003002B0AD0BB6903F04003CC
:10271400002B05D0786800F0EBF800BF00E000BFA4
:102724002037BD4680BD00BF2328000880B483B095
:1027340000AF786000BF0C37BD4680BC704780B4E2
:1027440083B000AF786000BF0C37BD4680BC7047D3
:1027540080B584B000AFF860B9603B601346FB718C
:102764002CE0BB69B3F1FF3F28D0BB69002B07D035
:10277400FDF7AEFD02463B68D31ABA699A421DD2F0
:10278400FB681B68DA68FB681B6822F4D072DA60A5
:10279400FB681B685A69FB681B6822F001025A61D6
:1027A400FB68202283F83920FB68202283F83A2032
:1027B400FB68002283F8382003230FE0FB681B68C2
:1027C4001A68BB681340BA689A420CBF01230023FD
:1027D400DBB21A46FB799A42C3D00023184610375D
:1027E400BD4680BD80B483B000AF78607B681B6851
:1027F400DA687B681B6822F49072DA607B681B6875
:102804005A697B681B6822F001025A617B682022A6
:1028140083F83A2000BF0C37BD4680BC704780B5B2
:1028240084B000AF78607B685B6AFB60FB68002261
:10283400DA85FB680022DA84F868FFF780FF00BFBE
:102844001037BD4680BD80B485B000AF78607B682A
:1028540093F83930DBB2212B44D17B689B68B3F504
:10286400805F1AD17B681B6AFB60FB681B881A4671
:102874007B681B68C2F308025A607B681B69002BE3
:1028840005D17B681B6A9A1C7B681A620EE07B6820
:102894001B6A5A1C7B681A6208E07B681B6A591C15
:1028A4007A6811621A787B681B685A607B68DB8CD3
:1028B4009BB2013B9BB27A681946D184002B0FD19D
:1028C4007B681B68DA687B681B6822F08002DA6028
:1028D4007B681B68DA687B681B6842F04002DA6038
:1028E400002300E0022318461437BD4680BC70471D
:1028F40080B582B000AF78607B681B68DA687B685B
:102904001B6822F04002DA607B68202283F83920B9
:102914007868FFF70BFF002318460837BD4680BDD3
:1029240080B584B000AF78607B6893F83A30DBB24E
:10293400222B71D17B689B68B3F5805F23D17B68C0
:102944009B6AFB607B681B69002B0ED17B681B684C
:102954005B689BB2C3F308039AB2FB681A807B6876
:102964009B6A9A1C7B689A6229E07B681B685B6897
:102974009BB2DBB29AB2FB681A807B689B6A5A1CD2
:102984007B689A621BE07B681B69002B0AD17B6819
:102994001B6858687B689B6A591C7A689162C2B24A
:1029A4001A700CE07B681B685B68DAB27B689B6A10
:1029B400581C7968886202F07F02D2B21A707B6870
:1029C400DB8D9BB2013B9BB27A681946D185002B03
:1029D40020D17B681B68DA687B681B6822F02002C0
:1029E400DA607B681B68DA687B681B6822F4807293
:1029F400DA607B681B685A697B681B6822F00102F5
:102A04005A617B68202283F83A20786800F036FA0D
:102A1400002302E0002300E0022318461037BD46DD
:102A240080BD000080B584B000AF78607B681B680F
:102A34001B6923F440517B68DA687B681B680A438E
:102A44001A617B689A687B681B691A437B685B69B7
:102A54001343FB607B681B68DB6823F4B05323F0EB
:102A64000C037A681268F9680B43D3607B681B68AF
:102A74005B6923F440717B689A697B681B680A432D
:102A84005A617B681B68524A93424ED1FEF7E6FBBB
:102A9400B860BA6813469B0013449A001A447B68D2
:102AA4005B689B00B2FBF3F34A4AA2FB03235B0976
:102AB4001901BA6813469B0013449A001A447B68B0
:102AC4005B689B00B2FBF3F2424BA3FB02035B097E
:102AD400642000FB03F3D31A1B0132333D4AA2FBEB
:102AE40003235B0903F0F0031944BA6813469B00FF
:102AF40013449A001A447B685B689B00B2FBF3F2B0
:102B0400344BA3FB02035B09642000FB03F3D31AD9
:102B14001B0132332F4AA2FB03235B0903F00F028C
:102B24007B681B680A449A604DE0FEF783FBB8603B
:102B3400BA6813469B0013449A001A447B685B6886
:102B44009B00B2FBF3F3234AA2FB03235B091901A5
:102B5400BA6813469B0013449A001A447B685B6866
:102B64009B00B2FBF3F21B4BA3FB02035B09642043
:102B740000FB03F3D31A1B013233164AA2FB0323CF
:102B84005B0903F0F0031944BA6813469B0013442D
:102B94009A001A447B685B689B00B2FBF3F20D4B0E
:102BA400A3FB02035B09642000FB03F3D31A1B019C
:102BB4003233084AA2FB03235B0903F00F027B684C
:102BC4001B680A449A6000BF1037BD4680BD00BF31
:102BD400003801401F85EB5180B588B000AF07F184
:102BE400100300221A605A609A60DA60414B9B69B4
:102BF400404A43F0200393613E4B9B6903F020035A
:102C0400FB60FB683B4B9B693A4A43F004039361C6
:102C1400384B9B6903F00403BB60BB68354B9B696D
:102C2400344A43F010039361324B9B6903F0100361
:102C34007B607B682F4B9B692E4A43F008039361AA
:102C44002C4B9B6903F008033B603B680022042182
:102C54002948FDF7E9FE01233B61284B7B610223F0
:102C6400BB6107F1100319462548FDF773FD2023C6
:102C74003B61244B7B610123BB6107F110031946BF
:102C84002148FDF767FD4FF400433B611D4B7B6119
:102C94000123BB6107F1100319461948FDF75AFDDA
:102CA40004233B6101237B610023BB610223FB619D
:102CB40007F1100319461048FDF74CFD00220121CD
:102CC4000620FDF708FC0620FDF721FC0122012166
:102CD4001720FDF700FC1720FDF719FC0222012143
:102CE4002820FDF7F8FB2820FDF711FC00BF203752
:102CF400BD4680BD001002400014014000001110C8
:102D040000080140000021100010014080B500AF10
:102D1400FDF786FA00F020F8FFF75EFF00F036FCBE
:102D240000F032FA00F0ECFA0948FEF7F4FA002158
:102D34000748FEF7FFFB04210548FEF743FB4FF469
:102D4400FA70FDF7CFFA034800F060FDF7E700BF23
:102D5400F80000205040000880B590B000AF07F1A3
:102D6400180328220021184600F0ECFC3B1D002229
:102D74001A605A609A60DA601A610123BB614FF4E9
:102D84008033FB6100233B620123BB6202237B632C
:102D94004FF48033BB634FF4E013FB6307F1180374
:102DA4001846FDF771FE0346002B01D000F06FF8C2
:102DB4000F237B600223BB600023FB604FF480631E
:102DC4003B6100237B613B1D02211846FEF7DCF8C2
:102DD4000346002B01D000F05AF800BF4037BD462F
:102DE40080BD80B483B000AF0346FB8000BF0C37C6
:102DF400BD4680BC704780B483B000AF786000BF2C
:102E04000C37BD4680BC704780B483B000AF786097
:102E14007B681B68164A934224D1164B1B689AB2EE
:102E2400154B1B8813449AB2134B1A80124B1A8801
:102E34000F4B5A63104B1B88B3F5967F08D10E4B8A
:102E44004FF496721A800B4B4FF0FF321A6009E070
:102E5400094B1B88002B05D1074B00221A80054B18
:102E640001221A6000BF0C37BD4680BC704700BF0A
:102E7400002C0140080000209000002080B483B0A2
:102E840000AF786000BF0C37BD4680BC704780B48B
:102E940000AF00BFBD4680BC7047000080B584B061
:102EA40000AF164B9B69154A43F001039361134B22
:102EB4009B6903F00103BB60BB68104BDB690F4ADD
:102EC40043F08053D3610D4BDB6903F080537B6087
:102ED4007B680520FDF7F4FA094B5B68FB60FB682F
:102EE40023F0E063FB60FB6843F00073FB60044A7B
:102EF400FB68536000BF1037BD4680BD0010024020
:102F04000000014080B400AF00BFBD4680BC7047E4
:102F140080B400AFFEE780B400AFFEE780B400AF3A
:102F2400FEE780B400AFFEE780B400AF00BFBD464B
:102F340080BC704780B400AF00BFBD4680BC704702
:102F440080B400AF00BFBD4680BC704780B500AF01
:102F5400FDF7ACF900BF80BD80B500AF0120FDF7DF
:102F64007BFD00BF80BD80B500AF2020FDF774FD60
:102F740000BF80BD80B500AF0248FEF719FB00BF5B
:102F840080BD00BFF800002080B500AF0248FEF706
:102F94000FFB00BF80BD00BFF800002080B500AF6C
:102FA4000248FEF705FB00BF80BD00BFF80000200B
:102FB40080B500AF0248FEF7FBFA00BF80BD00BF3A
:102FC400B800002080B500AF0448FFF7B3FA01222F
:102FD40003490248FFF759FA00BF80BD38010020B9
:102FE400A400002080B500AF4FF40040FDF734FD8D
:102FF40000BF80BD80B586B000AFF860B9607A606C
:1030040000237B610AE0AFF300800146BB685A1CD1
:10301400BA60CAB21A707B6901337B617A697B68D2
:103024009A42F0DB7B6818461837BD4680BD80B5F0
:1030340086B000AFF860B9607A6000237B6109E074
:10304400BB685A1CBA601B78184600F08DFA7B697D
:1030540001337B617A697B689A42F1DB7B681846AD
:103064001837BD4680BD80B483B000AF78604FF0A0
:10307400FF3318460C37BD4680BC704780B483B01C
:1030840000AF786039603B684FF400525A60002307
:1030940018460C37BD4680BC704780B483B000AF7F
:1030A4007860012318460C37BD4680BC704780B455
:1030B40085B000AFF860B9607A6000231846143711
:1030C400BD4680BC7047000080B584B000AF786016
:1030D400114B1B68002B02D10F4B104A1A600E4B88
:1030E4001B68FB600C4B1A687B6813446A46934266
:1030F40007D900F0FDFA02460C2313604FF0FF33AA
:1031040006E0054B1A687B681344034A1360FB68A6
:1031140018461037BD4680BD940000208001002071
:1031240080B400AF154B1B68144A43F001031360CD
:10313400124B5A681149124B13404B600F4B1B68DA
:103144000E4A23F0847323F4803313600B4B1B6803
:103154000A4A23F480231360084B5B68074A23F46C
:10316400FE035360054B4FF41F029A60054B4FF06A
:1031740000629A6000BFBD4680BC704700100240E8
:103184000000FFF800ED00E080B596B000AF07F155
:10319400480300221A605A609A60DA6007F140031B
:1031A40000221A605A6007F1240300221A605A6050
:1031B4009A60DA601A615A619A613B1D20220021EB
:1031C400184600F0BFFA4C4B4C4A1A604A4B40F286
:1031D400CF225A60484B00229A60474B40F2F312C8
:1031E400DA60454B00221A61434B00225A61424B7C
:1031F40000229A614048FEF763F80346002B01D091
:10320400FFF745FE4FF48053BB6407F148031946AA
:103214003948FEF7FBFB0346002B01D0FFF737FECE
:103224003548FEF753F90346002B01D0FFF72FFE74
:103234003148FEF793F80346002B01D0FFF727FE31
:1032440000233B6400237B6407F1400319462A48AA
:10325400FEF78EFF0346002B01D0FFF718FE602314
:103264007B620023BB620223FB6200233B630023D7
:103274007B630023BB630023FB6307F12403002269
:1032840019461D48FEF7FCFA0346002B01D0FFF750
:10329400FEFD00237B6240F2CF73BB620023FB621E
:1032A40007F12403042219461348FEF789FA03465A
:1032B400002B01D0FFF7EBFD00237B600023BB60F4
:1032C4000023FB6000233B6100237B614FF4005328
:1032D400BB6100233B623B1D19460748FEF78CFF88
:1032E4000346002B01D0FFF7D2FD034800F0D2F8CB
:1032F40000BF5837BD4680BDF8000020002C0140B7
:1033040080B58EB000AF07F1280300221A605A601E
:103314009A60DA6007F1200300221A605A603B1DAC
:1033240000221A605A609A60DA601A615A619A61DE
:103334002D4B2E4A1A602C4B41F61F425A602A4BE1
:1033440000229A60284B44F61F62DA60264B002262
:103354001A61254B00229A612348FDF7B1FF034609
:10336400002B01D0FFF793FD4FF48053BB6207F1AC
:10337400280319461C48FEF749FB0346002B01D0DD
:10338400FFF785FD1848FEF7A1F80346002B01D08E
:10339400FFF77DFD00233B6200237B6207F12003DE
:1033A40019461148FEF7E4FE0346002B01D0FFF74F
:1033B4006EFD60237B600023BB600223FB6000235F
:1033C4007B613B1D042219460748FEF759FA034660
:1033D400002B01D0FFF75BFD034800F05BF800BF52
:1033E4003837BD4680BD00BFB8000020000400404F
:1033F40080B584B000AF78607B681B68224A934232
:1034040024D1224B9B69214A43F4006393611F4BEF
:103414009B6903F40063FB60FB6800220021192010
:10342400FDF759F81920FDF772F8002200211A203F
:10343400FDF751F81A20FDF76AF8002200211B203D
:10344400FDF749F81B20FDF762F818E07B681B685C
:103454000F4A934213D10D4BDB690C4A43F002032C
:10346400D3610A4BDB6903F00203BB60BB68002233
:1034740000211D20FDF72FF81D20FDF748F800BF9F
:103484001037BD4680BD00BF002C01400010024033
:103494000004004080B58AB000AF786007F11403DF
:1034A40000221A605A609A60DA607B681B68284AB6
:1034B400934219D1274B9B69264A43F00403936135
:1034C400244B9B6903F004033B613B694FF4407355
:1034D4007B610223BB6102233B6207F1140319469B
:1034E4001D48FDF737F92EE07B681B681B4A9342A1
:1034F40029D1184B9B69174A43F010039361154B6C
:103504009B6903F01003FB60FB6880237B6102234B
:10351400BB6102233B6207F1140319461048FDF70F
:1035240019F9104B5B687B627B6A23F440637B620E
:103534007B6A43F0E0637B627B6A43F440637B62B3
:10354400084A7B6A536000BF2837BD4680BD00BF70
:10355400002C01400010024000080140000400401B
:10356400001001400000014080B582B000AF7860D7
:10357400391D4FF0FF3301220348FEF7EDFE7B684F
:1035840018460837BD4680BD3801002080B500AF1D
:10359400114B124A1A60104B4FF4E1325A600E4B31
:1035A40000229A600C4B0022DA600B4B00221A6155
:1035B400094B0C225A61084B00229A61064B0022E7
:1035C400DA610548FEF77BFE0346002B01D0FFF7C6
:1035D4005EFC00BF80BD00BF380100200038014000
:1035E40080B58AB000AF786007F1140300221A6036
:1035F4005A609A60DA607B681B68264A934245D118
:10360400254B9B69244A43F480439361224B9B6975
:1036140003F480433B613B691F4B9B691E4A43F0A3
:10362400080393611C4B9B6903F00803FB60FB6870
:1036340040237B610223BB6103233B6207F1140334
:1036440019461648FDF786F880237B610023BB6189
:103654000023FB6107F1140319461048FDF77AF8BB
:103664000F4B5B687B627B6A43F0E0637B627B6A3F
:1036740043F004037B620A4A7B6A536001220021FF
:103684002520FCF728FF2520FCF741FF00BF283741
:10369400BD4680BD0038014000100240000C0140CE
:1036A40000000140002103E00B4B5B584350043100
:1036B4000A480B4B42189A42F6D30A4A02E0002306
:1036C40042F8043B084B9A42F9D3FFF729FD00F076
:1036D40015F8FFF71BFB7047DC40000800000020D2
:1036E40074000020740000207C010020FEE700002C
:1036F400014B1868704700BF1000002070B500250A
:103704000C4E0D4CA41BA410A54209D100F088FC5A
:1037140000250A4E0A4CA41BA410A54205D170BD75
:1037240056F8253098470135EEE756F82530984786
:103734000135F2E7D4400008D4400008D440000822
:10374400D840000803460244934200D1704703F86E
:10375400011BF9E770B50E46054618B183690BB92C
:1037640000F00CFAAB69AC6813B9284600F006FA0D
:10377400234B9C4217D16C68A3891B071DD5236971
:10378400DBB1013EA36816F8011F013BA360E9B950
:10379400002B2EDA22460A21284600F03FF8013099
:1037A40011D00A2011E0174B9C4201D1AC68E3E729
:1037B400154B9C4208BFEC68DEE72146284600F022
:1037C4007FF80028DDD04FF0FF3070BD002B04DA05
:1037D400A2699A4206DC0A2904D023685A1C226092
:1037E4001970CFE72246284600F018F80130C9D1F5
:1037F400E9E70A2023685A1C22601870E5E700BF35
:1038040094400008B440000874400008024B01468C
:103814001868FFF79FBF00BF10000020F8B50E46E0
:103824001446054618B183690BB900F0A7F9214B7A
:103834009C422AD16C68A369A360A3891A072ED578
:10384400236963B323692068F6B2C01A63693746F3
:10385400834204DC2146284600F026F928BBA368ED
:103864000130013BA36023685A1C22601E70636907
:10387400834204D0A389DB0719D50A2E17D1214628
:10388400284600F011F990B10FE00B4B9C4201D196
:10389400AC68D0E7094B9C4208BFEC68CBE72146F3
:1038A400284600F00DF80028CCD04FF0FF373846FA
:1038B400F8BD00BF94400008B440000874400008FC
:1038C400324B70B51D6806460C4625B1AB6913B979
:1038D400284600F053F92E4B9C420FD16C68B4F982
:1038E4000C309AB215072CD4D00611D409223260B8
:1038F40043F04003A3814FF0FF303EE0254B9C4250
:1039040001D1AC68EBE7244B9C4208BFEC68E6E7C6
:10391400510712D5616B41B104F14403994202D0BD
:10392400304600F019FA00236363A38923F02403CB
:10393400A3810023636023692360A38943F0080300
:10394400A38123694BB9A38903F42073B3F5007FE2
:1039540003D02146304600F0BFF9A28912F00103DA
:103964000CD00023A36063695B42A361236953B94C
:10397400B4F90C3013F08000BAD170BD920758BF6F
:103984006369A360F2E70020F7E700BF100000209E
:1039940094400008B4400008744000088A892DE966
:1039A400F041054610070C4658D44B68002B05DC43
:1039B4000B6C002B02DC0020BDE8F081E66A002ECF
:1039C400F9D0002312F480522F68216A2B6032D080
:1039D400606DA3895A0705D56368C01A636B0BB180
:1039E400236CC01A00230246E66A216A2846B047BF
:1039F400431CA38906D129681D2948D8294ACA40ED
:103A0400D60744D5002262602269D904226004D515
:103A1400421C01D12B6803B96065616B2F600029DA
:103A2400C9D004F14403994202D0284600F094F925
:103A340000206063C0E701232846B047411CC8D179
:103A44002B68002BC5D01D2B01D0162B01D12F6064
:103A5400B1E7A38943F04003A381ADE70F69002FC9
:103A6400A9D0930718BF00230E6808BF4B69A6EBC3
:103A740007080F608B60B8F1000F9CDD43463A469F
:103A8400216A2846A66AB047002806DCA38943F0C9
:103A94004003A3814FF0FF308EE70744A8EB0008F2
:103AA400E9E700BF0100402038B50B6905460C4624
:103AB400DBB118B183690BB900F060F80C4B9C4280
:103AC40009D16C68B4F90C307BB121462846BDE8B5
:103AD4003840FFF763BF074B9C4201D1AC68F1E764
:103AE400054B9C4208BFEC68ECE7002038BD00BFE2
:103AF40094400008B440000874400008002310B546
:103B04000446C0E90033836081814366C281C0E911
:103B140004338361194608225C30FFF713FE054B1A
:103B240024626362044BA362044BE362044B236389
:103B340010BD00BFC93E0008EB3E0008233F00084B
:103B4400473F0008014900F085B800BFAD3A0008BE
:103B540070B568254A1E55430E4605F1740100F000
:103B640047F9044640B10021C0E900160C30A060BA
:103B740005F16802FFF7E6FD204670BD836910B5C4
:103B8400044633BBC0E912330365124B124A1B6867
:103B94008262984204BF0123836100F01FF86060D1
:103BA400204600F01BF8A060204600F017F8002221
:103BB400E06004216068FFF7A1FF01220921A068E9
:103BC400FFF79CFF02221221E068FFF797FF012311
:103BD400A36110BD70400008493B0008F8B51B4BB9
:103BE40007461E68B36913B93046FFF7C7FF483666
:103BF400D6E90134013B03D5336833B13668F7E7BE
:103C0400B4F90C506DB16834F4E704213846FFF779
:103C14009FFF30600028F1D10C2304463B6020460E
:103C2400F8BD0B4B6566C4E90055A560C4E90335CE
:103C3400C4E905550822294604F15C00FFF782FD1A
:103C4400C4E90D55C4E91255E9E700BF7040000806
:103C54000100FFFF2DE9F84380468946002600F164
:103C6400480414B93046BDE8F883D4E90175013F2E
:103C740001D52468F5E7AB89012B07D9B5F90E30D6
:103C8400013303D029464046C84706436835EEE76A
:103C940070B50E46B1F90E1096B0002914461D46B3
:103CA40007DA00232B60B3891A0610D44FF480631B
:103CB4000EE06A4600F06CF90028F2DB019A02F487
:103CC4007042A2F500535A425A412A60EEE740235B
:103CD4000020236016B070BD8B8973B59D0706461E
:103CE4000C4607D504F14703236023610123636174
:103CF40002B070BD01AB6A46FFF7CAFF00990546E2
:103D0400304600F075F848B9B4F90C309A05EFD490
:103D140023F0030343F00203A381E3E70D4BB362F3
:103D2400A389206043F08003A381009B2061636129
:103D3400019B5BB1B4F90E10304600F03BF928B199
:103D4400A38923F0030343F00103A381A3891D4343
:103D5400A581CDE7493B000838B50546002943D085
:103D640051F8043C0C1F002BB8BFE41800F044F9D0
:103D74001E4A1368104633B9636014602846BDE8D0
:103D8400384000F03AB9A3420BD921686218934233
:103D940001BF1A685B685218226063600460EDE733
:103DA40013465A680AB1A242FAD919685818A042AF
:103DB4000BD120680144581882421960DED1106882
:103DC4005268014419605A60D8E702D90C232B6069
:103DD400D4E7206821188A4201BF11685268091883
:103DE400216062605C60C9E738BD00BF98000020B4
:103DF40070B5CD1C25F0030508350C2D38BF0C25F6
:103E0400002D064601DBA94203D90C2333600020B0
:103E140070BD00F0F1F8214A1468214691B9204C94
:103E240023681BB9304600F03DF82060294630462F
:103E340000F038F8431C24D10C233046336000F0E2
:103E4400DCF8E4E70B685B1B18D40B2B0FD90B6071
:103E5400CC18CD50304600F0D0F804F10B00231DEF
:103E640020F00700C31AD3D05A42E250D0E74B687F
:103E74008C4216BF636013600C46EBE70C4649683E
:103E8400CCE7C41C24F00304A04205D0211A304618
:103E940000F008F80130CFD02560DBE7980000205F
:103EA4009C00002038B50023054C054608462360D5
:103EB400FFF70AF9431C02D1236803B12B6038BD14
:103EC4007801002010B50C46B1F90E1000F096F8F8
:103ED4000028ABBF636DA3891B1823F48053ACBFC8
:103EE4006365A38110BD2DE9F0411F468B8905460A
:103EF400DB050C46164605D502230022B1F90E1047
:103F040000F068F8A389324623F48053A381B4F9FE
:103F14000E103B462846BDE8F04100F017B810B536
:103F24000C46B1F90E1000F055F8431CA38915BFD7
:103F3400606523F4805343F48053A38118BFA381A5
:103F440010BDB1F90E1000F013B8000038B50546E5
:103F5400084611460022054C22601A46FFF767F80E
:103F6400431C02D1236803B12B6038BD78010020C3
:103F740038B50023054C054608462360FFF773F85F
:103F8400431C02D1236803B12B6038BD78010020A3
:103F940038B50023064C0546084611462360FFF752
:103FA4006DF8431C02D1236803B12B6038BD00BFF8
:103FB4007801002038B50023054C054608462360E7
:103FC400FFF76BF8431C02D1236803B12B6038BDA3
:103FD4007801002038B50546084611460022054CF4
:103FE40022601A46FFF763F8431C02D1236803B129
:103FF4002B6038BD780100207047704738B50546FE
:10400400084611460022054C22601A46FEF7F2FFCC
:10401400431C02D1236803B12B6038BD7801002012
:10402400F8B500BFF8BC08BC9E467047F8B500BFA1
:08403400F8BC08BC9E46704771
:10403C0002030405060708090A0B0C0D0E0F1010DD
:10404C000102000048656C6C6F0D00000000000060
:10405C00000000000102030406070809000000002C
:10406C000102030414000020000000000000000006
:10407C000000000000000000000000000000000034
:10408C000000000000000000000000000000000024
:10409C000000000000000000000000000000000014
:1040AC000000000000000000000000000000000004
:1040BC0000000000000000000000000000000000F4
:0840CC000000000000000000EC
:0440D40009020008D5
:0440D800E5010008F6
:1040DC001000000001000000010000000024F400AA
:1040EC00140000200000000094400008B4400008B8
:1040FC0074400008000000000000000000000000F8
:10410C0000000000000000000000000000000000A3
:10411C000000000000000000000000000000000093
:10412C000000000000000000000000000000000083
:10413C000000000000000000000000000000000073
:04414C00000000006F
:04000005080036A910
:00000001FF
